:100000000C9462000C948A000C948A000C944B05AA
:100010000C948A000C948A000C948A000C948A0038
:100020000C948A000C948A000C948A000C948A0424
:100030000C948A000C948A000C948A000C948A0018
:100040000C94E8030C948A000C9458040C94320429
:100050000C948A000C948A000C948A000C948A00F8
:100060000C948A000C948A000000000024002700F1
:100070002A0000000000250028002B0000000000DE
:1000800023002600290004040404040404040202DA
:100090000202020203030303030301020408102007
:1000A0004080010204081020010204081020000012
:1000B0000008000201000003040700000000000027
:1000C0000000930511241FBECFEFD8E0DEBFCDBFE7
:1000D00011E0A0E0B1E0E0E3F7E102C005900D928D
:1000E000A432B107D9F722E0A4E2B1E001C01D9229
:1000F000AF33B207E1F710E0C2E6D0E004C02197C9
:10010000FE010E944F09C136D107C9F70E9421069E
:100110000C94960B0C940000833081F028F481300D
:1001200099F08230A1F008958730A9F08830B9F0B5
:100130008430D1F4809180008F7D03C08091800055
:100140008F7780938000089584B58F7702C084B53F
:100150008F7D84BD08958091B0008F7703C080911A
:10016000B0008F7D8093B0000895CF93DF93282F48
:1001700030E0F901E255FF4F8491F901E656FF4F57
:10018000D491F901EA57FF4FC491CC2391F081112A
:100190000E948C00EC2FF0E0EE0FFF1FE458FF4FA1
:1001A000A591B491EC91ED2381E090E021F480E001
:1001B00002C080E090E0DF91CF9108951F93CF932C
:1001C000DF93282F30E0F901E255FF4F8491F901C8
:1001D000E656FF4FD491F901EA57FF4FC491CC2363
:1001E000C1F0162F81110E948C00EC2FF0E0EE0F71
:1001F000FF1FEE58FF4FA591B4919FB7F8941111CE
:1002000004C08C91D095D82302C0EC91DE2BDC93F6
:100210009FBFDF91CF911F910895CF93DF9390E01F
:10022000FC01E656FF4F2491FC01EA57FF4F8491F1
:10023000882361F190E0880F991FFC01E859FF4F76
:10024000C591D491FC01EE58FF4FA591B491611175
:1002500009C09FB7F8948881209582238883EC9108
:100260002E230BC0623061F49FB7F8948881322F3F
:10027000309583238883EC912E2B2C939FBF06C04F
:100280008FB7F894E8812E2B28838FBFDF91CF9111
:1002900008958E3008F08E508770806480937C00C3
:1002A00080917A00806480937A0080917A0086FD44
:1002B000FCCF809178002091790090E0922B0895F6
:1002C0003FB7F89480913A0190913B01A0913C0195
:1002D000B0913D0126B5A89B05C02F3F19F00196AE
:1002E000A11DB11D3FBFBA2FA92F982F8827820FBC
:1002F000911DA11DB11DBC01CD0142E0660F771F0C
:10030000881F991F4A95D1F70895CF92DF92EF92F7
:10031000FF920F931F93CF93DF936C017A018B01B0
:10032000C0E0D0E0CE15DF0581F0D8016D918D01E0
:10033000D601ED91FC910190F081E02DC601099567
:10034000892B11F02196EECF7E01C701DF91CF916D
:100350001F910F91FF90EF90DF90CF900895089537
:1003600080E090E00895FC01538D448D252F30E00E
:10037000842F90E0821B930B541710F0CF960895B2
:1003800001970895FC01918D828D981761F0828DFF
:10039000DF01A80FB11D5D968C91928D9F5F9F73B9
:1003A000928F90E008958FEF9FEF0895FC01918D5B
:1003B000828D981731F0828DE80FF11D858D90E0C8
:1003C00008958FEF9FEF0895FC01918D228D892F65
:1003D00090E0805C9F4F821B91098F73992708954D
:1003E0008EE391E00E94E40121E0892B09F420E0F2
:1003F000822F0895FC01848DDF01A80FB11DA35A3F
:10040000BF4F2C91848D90E001968F739927848F34
:10041000A689B7892C93A089B1898C918370806457
:100420008C93938D848D981306C00288F389E02DF8
:1004300080818F7D80830895EF92FF920F931F93A9
:10044000CF93DF93EC0181E0888F9B8D8C8D981387
:1004500005C0E889F989808185FD26C0F62E0B8DBF
:1004600010E00F5F1F4F0F731127E02E8C8DE812E5
:100470000CC00FB607FCFACFE889F989808185FFA7
:10048000F5CFCE010E94FA01F1CF8B8DFE01E80F6E
:10049000F11DE35AFF4FF0829FB7F8940B8FEA8962
:1004A000FB89808180620AC09FB7F894EE89FF893A
:1004B0006083E889F98980818370806480839FBF2D
:1004C00081E090E0DF91CF911F910F91FF90EF902D
:1004D0000895CF93DF93EC01888D8823C9F0EA89D2
:1004E000FB89808185FD05C0A889B9898C9186FD2D
:1004F0000FC00FB607FCF5CF808185FFF2CFA8892A
:10050000B9898C9185FFEDCFCE010E94FA01E7CF2A
:10051000DF91CF91089580E090E0892B29F00E942F
:10052000F00181110C9400000895009769F0FC011E
:1005300001900020E9F73197AF01481B590BBC012E
:100540008EE391E00C94850180E090E008958F9215
:100550009F92AF92BF920F931F93CF93DF93CDB72C
:10056000DEB7A1970FB6F894DEBF0FBECDBF19A2BC
:10057000423008F44AE08E010F5D1F4F842E912C0B
:10058000A12CB12CA50194010E942109E62FB901EB
:10059000CA0101501109EA3014F4E05D01C0E95CC0
:1005A000D801EC93232B242B252B61F7C8010E9443
:1005B0009502A1960FB6F894DEBF0FBECDBFDF91B6
:1005C000CF911F910F91BF90AF909F908F90089502
:1005D000CF92DF92EF92FF92CF93DF9397FF1BC0F2
:1005E0006B017C016DE28EE391E00E941C02EC0144
:1005F00066277727CB016C197D098E099F094AE090
:100600000E94A7028C0F9D1FDF91CF91FF90EF906A
:10061000DF90CF9008954AE0DF91CF91FF90EF9067
:10062000DF90CF900C94A7028F929F92AF92BF92CF
:10063000CF92DF92EF92FF920F931F93CF93DF93AE
:100640006B017C01142F9B01AC010E948C0B882351
:1006500019F082E191E027C046015701E894B7F80C
:100660002FEF3FEF4FE75FE7C501B4010E948C0B0E
:1006700081110DC02FEF3FEF4FE75FE7C501B401D8
:100680000E94C20918161CF486E191E00CC02FEFFD
:100690003FEF4FE75FE4C701B6010E941A0B18163F
:1006A00084F48AE191E0DF91CF911F910F91FF9047
:1006B000EF90DF90CF90BF90AF909F908F900C9471
:1006C00095022FEF3FEF4FE75FECC701B6010E94A5
:1006D000C20987FDE6CF20E030E0A901C701B601DD
:1006E0000E94C20987FF0BC06DE28EE391E00E9479
:1006F0001C02EC01F7FAF094F7F8F09402C0C0E0A5
:10070000D0E000E060E070E080E09FE3101741F08F
:1007100020E030E040E251E40E94C7090F5FF6CFCD
:10072000A70196010E9456096B017C010E94390ABB
:100730004B015C014AE00E94A702C80FD91F112398
:10074000B9F1C501B4010E94680A9B01AC01C7015F
:10075000B6010E9455096B017C016EE28EE391E0C7
:100760000E941C02C80FD91F20E030E040E251E493
:10077000C701B6010E941F0B4B015C010E94390AA0
:100780006B01E12CF12C4AE0C701B6010E94A702DF
:10079000C80FD91FC701B6010E94680A9B01AC01AE
:1007A000C501B4010E9455096B017C011150E1F6AD
:1007B000CE01DF91CF911F910F91FF90EF90DF90CD
:1007C000CF90BF90AF909F908F9008950E94910B13
:1007D0001F920F920FB60F9211242F933F938F9376
:1007E0009F93AF93BF938091360190913701A09171
:1007F0003801B09139013091350123E0230F2D37B5
:1008000020F40196A11DB11D05C026E8230F029614
:10081000A11DB11D209335018093360190933701BE
:10082000A0933801B093390180913A0190913B0136
:10083000A0913C01B0913D010196A11DB11D809395
:100840003A0190933B01A0933C01B0933D01BF91CD
:10085000AF919F918F913F912F910F900FBE0F906D
:100860001F9018951F920F920FB60F9211242F937D
:100870003F934F935F936F937F938F939F93AF9328
:10088000BF93EF93FF938EE391E00E94FA01FF91F3
:10089000EF91BF91AF919F918F917F916F915F91F8
:1008A0004F913F912F910F900FBE0F901F90189571
:1008B0001F920F920FB60F9211242F938F939F9335
:1008C000EF93FF93E0914E01F0914F018081E09111
:1008D0005401F091550182FD12C090818091570121
:1008E0008F5F8F7320915801821751F0E09157016B
:1008F000F0E0E25CFE4F958F8093570101C080814C
:10090000FF91EF919F918F912F910F900FBE0F90BC
:100910001F9018951F920F920FB60F9211242F93CC
:100920003F934F935F936F937F938F939F93AF9377
:10093000BF93EF93FF938091290187FF05C0109229
:100940008500109284001BC020912901022E000C0A
:10095000330B8091FF0190E02817390784F48091D0
:100960002901082E000C990BFC01EE0FFF1F8E0FC2
:100970009F1FFC01E552FE4F808186FD15C08091CE
:1009800029018F5F8093290120912901022E000CFB
:10099000330B8091FF0190E028173907C4F4809150
:1009A00029018C3064F113C080912901082E000CBC
:1009B000990BFC01EE0FFF1F8E0F9F1FFC01E552EC
:1009C000FE4F808160E08F730E94DE00D8CF80915F
:1009D000840090918500049680349C4918F480E44A
:1009E0009CE905C0809184009091850004969093C5
:1009F0008900809388008FEF809329013BC020916C
:100A000084003091850080912901082E000C990BFB
:100A1000FC01EE0FFF1F8E0F9F1FFC01E552FE4FE2
:100A200081819281820F931F909389008093880027
:100A300080912901082E000C990BFC01EE0FFF1F7D
:100A40008E0F9F1FFC01E552FE4F808186FF12C072
:100A500080912901082E000C990BFC01EE0FFF1F5D
:100A60008E0F9F1FFC01E552FE4F808161E08F7366
:100A70000E94DE00FF91EF91BF91AF919F918F9106
:100A80007F916F915F914F913F912F910F900FBE8A
:100A90000F901F9018951F920F920FB60F9211246E
:100AA0002F933F934F935F936F937F938F939F9376
:100AB000AF93BF93EF93FF9380912801811110C0F2
:100AC000189B20C081E0809328010E946001609300
:100AD000240170932501809326019093270112C071
:100AE000813081F418990EC0109228010E94600193
:100AF0002091240130912501621B730B70932B010F
:100B000060932A01FF91EF91BF91AF919F918F91D7
:100B10007F916F915F914F913F912F910F900FBEF9
:100B20000F901F901895109241011092400188EE8D
:100B300093E0A0E0B0E08093420190934301A09342
:100B40004401B093450184E091E090933F0180938C
:100B50003E0185EC90E090934B0180934A0184EC38
:100B600090E090934D0180934C0180EC90E0909345
:100B70004F0180934E0181EC90E09093510180935E
:100B8000500182EC90E0909353018093520186ECE7
:100B900090E0909355018093540110925701109268
:100BA00058011092590110925A0189E29CE5AFE96F
:100BB000B0E48093110290931202A0931302B093B9
:100BC000140280E090E4ACE1B6E4809315029093C7
:100BD0001602A0931702B093180280E090E0A9E3F8
:100BE000B3E480931F0290932002A0932102B0935C
:100BF000220280E090E4ACE1B5E48093230290937C
:100C00002402A0932502B09326028091FF018C302C
:100C1000A0F491E0980F9093FF018093000290E080
:100C2000FC01EE0FFF1F8E0F9F1FFC01E552FE4FD0
:100C300088EB9BE09283818308958FEF809300027D
:100C40000895789484B5826084BD84B5816084BD44
:100C500085B5826085BD85B5816085BD80916E005A
:100C6000816080936E00109281008091810082608B
:100C700080938100809181008160809381008091C8
:100C800080008160809380008091B10084608093B7
:100C9000B1008091B00081608093B00080917A00B3
:100CA000846080937A0080917A00826080937A00D9
:100CB00080917A00816080937A0080917A008068C8
:100CC00080937A001092C100E0914E01F0914F01A3
:100CD00082E08083E0914A01F0914B011082E09123
:100CE0004C01F0914D0180E1808310925601E0911A
:100CF0005201F091530186E08083E0915001F09120
:100D00005101808180618083E0915001F091510117
:100D1000808188608083E0915001F0915101808151
:100D200080688083E0915001F091510180818F7D36
:100D3000808362E085E00E940D0162E086E00E940F
:100D40000D0161E083E00E940D0160E083E00E94FC
:100D5000DE008091680081608093680080916B0064
:100D6000816080936B00809100028C3008F051C04C
:100D700061E089E00E940D0180910002E82FF0E01F
:100D80009F01220F331FE20FF31FE552FE4F9081A8
:100D9000907C9960908310920102109202026CE0A4
:100DA0000E9443092CE0829FB001112440E050E0F2
:100DB0009B01240F351FF901EE0FFF1F2E0F3F1F60
:100DC000F901E552FE4F908196FD16C04F5F5F4FCF
:100DD0004C30510569F781110FC01092800082E0FC
:100DE000809381001092850010928400B19A8091C6
:100DF0006F00826080936F00E0910002F0E0CF010D
:100E0000880F991FE80FF91FE552FE4F808180641B
:100E10008083809100028C3080F42FB7F89490E0AA
:100E2000FC01EE0FFF1F8E0F9F1FFC01E552FE4FCE
:100E30008CED9BE0928381832FBF80E197E2A0E05D
:100E4000B0E08093270290932802A0932902B093E8
:100E50002A020E94600198EE892E93E0992EA12C1F
:100E6000B12C80E00E944901909304028093030218
:100E7000C0901102D0901202E0901302F090140280
:100E8000BC01990F880B990B0E946A0AA701960171
:100E90000E941F0B20E030EC4FE754E40E94C7098A
:100EA0002B013C01609305027093060280930702B8
:100EB000909308029B01AC01C701B6010E9455093D
:100EC000209115023091160240911702509118029C
:100ED0000E941F0BA30192010E94C7092B013C0134
:100EE0006093090270930A0280930B0290930C02A4
:100EF0009B01AC0160E070E080E89FE30E94C709BD
:100F00006B017C0160930D0270930E0280930F02BF
:100F10009093100220E030E046E154E4C301B201B6
:100F20000E94C20918166CF026EA3BE944E45AE331
:100F3000C701B6010E94550923EB3AE34FEA54E397
:100F400006C02CEC30E94CE255E3C701B6010E9423
:100F5000C7096093370270933802809339029093E7
:100F60003A024090370250903802609039027090F7
:100F70003A024092310150923201609233017092F4
:100F8000340182E00E94490190931A028093190271
:100F9000BC01990F880B990B0E946A0A20E030E08F
:100FA00040E85AE30E941F0B20E030E44CE955E48E
:100FB0000E941F0B209123023091240240912502B0
:100FC000509126020E94550920911F023091200263
:100FD00040912102509122020E94C70960931B0296
:100FE00070931C0280931D0290931E0220E030E05B
:100FF0004AE754E40E941F0B6B017C0160933B02A3
:1010000070933C0280933D0290933E0260932D01C9
:1010100070932E0180932F019093300185E00E9400
:10102000B50033243394892B09F4312C30922C01F0
:1010300086E00E94B500EC0100912A0110912B017D
:101040000E9460014AE00E94A7028EE191E00E94A6
:10105000950241E0C301B2010E9414038EE191E0C8
:101060000E94950241E0C701B6010E9414038EE17F
:1010700091E00E949502632D70E080E090E00E9474
:10108000E8028EE191E00E94950261E070E080E06C
:1010900090E0CD2B19F460E070E0CB010E94E802F3
:1010A0008EE191E00E949502B801110F880B990B17
:1010B0000E94E80280E291E00E94950261E083E0F4
:1010C0000E94DE000E94600160932B0270932C024C
:1010D00080932D0290932E020091270210912802F6
:1010E0002091290230912A02C0903302D09034021C
:1010F000E0903502F09036020C0D1D1D2E1D3F1D97
:1011000068017901C61AD70AE80AF90AC701B601C7
:10111000C0922F02D0923002E0923102F09232025D
:1011200029E8C21623E1D206E104F104BCF1A501CD
:1011300094010E94020969017A010E9460012B0159
:101140003C010E946001DC01CB0184199509A609CC
:10115000B709883E9340A105B10598F381E0C81A0C
:10116000D108E108F10898EE490E93E0591E611C80
:10117000711CC114D104E104F10419F760912F022C
:10118000709130028091310290913202A501940158
:101190000E9402096230710548F411C01C141D043C
:1011A0001E041F0464F46130710549F0660F771F57
:1011B000660F771F65507109CB010197F1F74091D8
:1011C0002B0250912C0260912D0270912E02809181
:1011D0002F0290913002A0913102B0913202840F1F
:1011E000951FA61FB71F8093330290933402A093DC
:1011F0003502B093360260E083E00E94DE000E9478
:101200008B022FCE052E97FB1EF400940E94190925
:1012100057FD07D00E94210907FC03D04EF40C941F
:10122000190950954095309521953F4F4F4F5F4F8D
:10123000089590958095709561957F4F8F4F9F4F42
:101240000895A1E21A2EAA1BBB1BFD010DC0AA1F07
:10125000BB1FEE1FFF1FA217B307E407F50720F01F
:10126000A21BB30BE40BF50B661F771F881F991F9A
:101270001A9469F760957095809590959B01AC01E3
:10128000BD01CF010895991B79E004C0991F9617FD
:1012900008F0961B881F7A95C9F780950895EE0F80
:1012A000FF1F0590F491E02D09945058BB27AA2701
:1012B0000E946D090C94E00A0E94D20A38F00E9444
:1012C000D90A20F039F49F3F19F426F40C94CF0A80
:1012D0000EF4E095E7FB0C94C90AE92F0E94F10A8D
:1012E00058F3BA17620773078407950720F079F45B
:1012F000A6F50C94130B0EF4E0950B2EBA2FA02D2F
:101300000B01B90190010C01CA01A0011124FF27B2
:10131000591B99F0593F50F4503E68F11A16F040AD
:10132000A22F232F342F4427585FF3CF46953795AC
:101330002795A795F0405395C9F77EF41F16BA0B71
:10134000620B730B840BBAF09150A1F0FF0FBB1F1F
:10135000661F771F881FC2F70EC0BA0F621F731F68
:10136000841F48F4879577956795B795F7959E3FC5
:1013700008F0B0CF9395880F08F09927EE0F979556
:10138000879508950E94A50A08F481E008950E94B7
:10139000DB090C94E00A0E94D90A58F00E94D20A94
:1013A00040F029F45F3F29F00C94C90A51110C94C4
:1013B000140B0C94CF0A0E94F10A68F39923B1F33D
:1013C000552391F3951B550BBB27AA27621773076B
:1013D000840738F09F5F5F4F220F331F441FAA1FFF
:1013E000A9F335D00E2E3AF0E0E832D091505040BB
:1013F000E695001CCAF72BD0FE2F29D0660F771F69
:10140000881FBB1F261737074807AB07B0E809F04E
:10141000BB0B802DBF01FF2793585F4F3AF09E3FD3
:10142000510578F00C94C90A0C94140B5F3FE4F357
:10143000983ED4F3869577956795B795F7959F5F16
:10144000C9F7880F911D9695879597F90895E1E062
:10145000660F771F881FBB1F621773078407BA07C1
:1014600020F0621B730B840BBA0BEE1F88F7E0951C
:1014700008950E94F90A88F09F5798F0B92F99278C
:10148000B751B0F0E1F0660F771F881F991F1AF06F
:10149000BA95C9F714C0B13091F00E94130BB1E0B6
:1014A00008950C94130B672F782F8827B85F39F0B5
:1014B000B93FCCF3869577956795B395D9F73EF408
:1014C00090958095709561957F4F8F4F9F4F0895B0
:1014D000E89409C097FB3EF49095809570956195CE
:1014E0007F4F8F4F9F4F9923A9F0F92F96E9BB2784
:1014F0009395F695879577956795B795F111F8CF00
:10150000FAF4BB0F11F460FF1BC06F5F7F4F8F4F6A
:101510009F4F16C0882311F096E911C0772321F060
:101520009EE8872F762F05C0662371F096E8862FF8
:1015300070E060E02AF09A95660F771F881FDAF74F
:10154000880F9695879597F90895990F0008550F7C
:10155000AA0BE0E8FEEF16161706E807F907C0F039
:1015600012161306E407F50798F0621B730B840B41
:10157000950B39F40A2661F0232B242B252B21F41B
:1015800008950A2609F4A140A6958FEF811D811DBB
:10159000089597F99F6780E870E060E008959FEFF5
:1015A00080EC089500240A941616170618060906FA
:1015B000089500240A9412161306140605060895C9
:1015C000092E0394000C11F4882352F0BB0F40F451
:1015D000BF2B11F460FF04C06F5F7F4F8F4F9F4F91
:1015E000089557FD9058440F551F59F05F3F71F013
:1015F0004795880F97FB991F61F09F3F79F087957A
:101600000895121613061406551FF2CF4695F1DF02
:1016100008C0161617061806991FF1CF8695710592
:10162000610508940895E894BB2766277727CB01C6
:1016300097F908950E94A50A08F48FEF08950E9473
:10164000320B0C94E00A0E94D20A38F00E94D90AA8
:1016500020F0952311F00C94C90A0C94CF0A1124A0
:101660000C94140B0E94F10A70F3959FC1F3950F2F
:1016700050E0551F629FF001729FBB27F00DB11D16
:10168000639FAA27F00DB11DAA1F649F6627B00DA6
:10169000A11D661F829F2227B00DA11D621F739F8F
:1016A000B00DA11D621F839FA00D611D221F749F9D
:1016B0003327A00D611D231F849F600D211D822FE4
:1016C000762F6A2F11249F5750409AF0F1F088230B
:1016D0004AF0EE0FFF1FBB1F661F771F881F915038
:1016E0005040A9F79E3F510580F00C94C90A0C9414
:1016F000140B5F3FE4F3983ED4F386957795679596
:10170000B795F795E7959F5FC1F7FE2B880F911D61
:101710009695879597F908950E94A50A880B990BCD
:10172000089581E090E0F8940C94960BF894FFCF24
:10173000000000001C028501B3016902E401C2013E
:10174000D6016E616E00696E66006F7666002C00D1
:041750000D0A00007E
:00000001FF
